:020000040800F2
:10000000100700204D02000845240008592100086F
:100010004124000845040008652C00080000000089
:10002000000000000000000000000000B9240008EB
:100030004904000800000000B5240008112500084C
:1000400067020008670200086702000867020008EC
:1000500067020008670200086702000867020008DC
:1000600067020008670200086702000867020008CC
:1000700067020008670200086702000867020008BC
:1000800067020008670200086702000867020008AC
:10009000670200086702000867020008670200089C
:1000A00067020008FD2500086702000867020008D3
:1000B000670200086702000867020008670200087C
:1000C000670200086702000867020008670200086C
:1000D000670200086702000867020008670200085C
:1000E000670200086702000867020008670200084C
:1000F000670200086702000867020008670200083C
:10010000670200086702000867020008670200082B
:10011000670200086702000867020008670200081B
:10012000670200086702000867020008670200080B
:1001300067020008670200086702000867020008FB
:1001400067020008670200086702000867020008EB
:1001500067020008670200086702000867020008DB
:1001600067020008670200086702000867020008CB
:10017000670200086702000867020008000000002C
:1001800067020008670200086702000867020008AB
:10019000670200086702000867020008670200089B
:1001A00000000000000000006702000800F002F8F4
:1001B00000F03CF80AA090E8000C82448344AAF1C5
:1001C0000107DA4501D100F031F8AFF2090EBAE8C3
:1001D0000F0013F0010F18BFFB1A43F0010318477B
:1001E000E82B0000082C0000103A24BF78C878C122
:1001F000FAD8520724BF30C830C144BF04680C602D
:10020000704700000023002400250026103A28BF74
:1002100078C1FBD8520728BF30C148BF0B60704778
:100220001FB502F0BCFD1FBD10B510BD00F0D0F829
:100230001146FFF7F5FF02F077FD00F0EEF803B48A
:10024000FFF7F2FF03BC00F0F5F800000948804713
:1002500009480047FEE7FEE7FEE7FEE7FEE7FEE7A8
:10026000FEE7FEE7FEE7FEE704480549054A064BC0
:1002700070470000E9250008AD01000810010020CA
:1002800010070020100300201003002053EA020C86
:1002900000F069802DE9F04B4FF00006002B1FBFE6
:1002A000B3FA83F503FA05F424FA05F65E4012BFAB
:1002B0001643B2FA82F502FA05F4C5F120051EBF15
:1002C00022FA05FC44EA0C04203556EA044C4FEAB5
:1002D000144418BF641C4FF000084FF0000990420E
:1002E00071EB030C39D3002919BFB1FA81F701FA78
:1002F00007F6B0FA80F700FA07F6C7F120071EBF2D
:1003000020FA07FC46EA0C062037B6FBF4FCA7EB04
:100310000507103F07F01F0BCBF120062CFA06F65D
:100320000CFA0BFB44BFB3460026202FA4BF5E4649
:100330004FF0000B5BEA060C08BF4FF0010B19EB06
:100340000B0948EB0608ABFB027C06FB02CC0BFB5F
:1003500003CCC01B71EB0C01C1E70B4602464146C2
:100360004846BDE8F08B13B5084318BF4FF0FF3087
:100370000146AFF30080BDE81C4070474FF000021B
:1003800000B5134694469646203922BFA0E80C508B
:10039000A0E80C50B1F12001BFF4F7AF090728BF66
:1003A000A0E80C5048BF0CC05DF804EB890028BFE2
:1003B00040F8042B08BF704748BF20F8022B11F00B
:1003C000804F18BF00F8012B704770477047704787
:1003D000754600F02BF8AE4605006946534620F0FE
:1003E0000700854618B020B5FFF73EFFBDE8204066
:1003F0004FF000064FF000074FF000084FF0000BE1
:10040000AC46ACE8C009ACE8C009ACE8C009ACE84F
:10041000C00921F007018D46704710B50446AFF3BF
:1004200000802046BDE81040FFF709BF0048704734
:100430001000002001491820ABBEFEE72600020094
:1004400070470000FFE7FEE77047000072B6FFE765
:10045000FEE7000090B00F900E9100200C900B90E2
:100460000A900D90FFE70D980F2800F2E881FFE752
:100470000D99012088400C900E9800680C99084056
:100480000B900B980C99884240F0D481FFE70E98AE
:10049000406800F00300012807D0FFE70E9840688D
:1004A00000F0030002282FD1FFE70F9880680A9020
:1004B0000D984100032000FA01F10A9888430A9040
:1004C0000E98C0680D99490000FA01F10A98084396
:1004D0000A900A980F9988600F9840680A900D99C1
:1004E000012000FA01F10A9888430A900E984068AA
:1004F000C0F300100D9900FA01F10A9808430A9020
:100500000A980F994860FFE70E98406800F00300D2
:10051000032818D0FFE70F98C0680A900D98410093
:10052000032000FA01F10A9888430A900E98806827
:100530000D99490000FA01F10A9808430A900A98B7
:100540000F99C860FFE70E98406800F0030002288A
:1005500026D1FFE70F980D996FF0030202EA5101CF
:100560000844006A0A900D9800F0070081000F20EF
:1005700000FA01F10A9888430A900E9800690D99D3
:1005800001F00701890000FA01F10A9808430A9076
:100590000A980F990D9B02EA530211440862FFE783
:1005A0000F9800680A900D984100032000FA01F1AD
:1005B0000A9888430A900E98406800F003000D994D
:1005C000490000FA01F10A9808430A900A980F9925
:1005D00008600E9880798007002800F02A81FFE7E4
:1005E000FFE70020099043F64400C4F202000168CE
:1005F00041F480410160006800F48040099009984E
:10060000FFE70D9820F0030043F60801C4F2010152
:1006100040580A900D9800F0030081000F2000FA66
:1006200001F10A9888430A900F980021C4F2020150
:10063000884203D1FFE7002008907AE00F9840F24B
:100640000041C4F20201884203D1FFE70120079074
:100650006CE00F9840F60001C4F20201884203D119
:10066000FFE7022006905EE00F9840F60041C4F2DA
:100670000201884203D1FFE70320059050E00F9864
:1006800041F20001C4F20201884203D1FFE70420D5
:10069000049042E00F9841F20041C4F20201884206
:1006A00003D1FFE70520039034E00F9841F60001E5
:1006B000C4F20201884203D1FFE70620029026E03F
:1006C0000F9841F60041C4F20201884203D1FFE7CE
:1006D0000720019018E00F9842F20001C4F20201D5
:1006E000884203D1FFE7082000900AE00F9942F208
:1006F0000042C4F202020A20914208BF0920009081
:10070000FFE700980190FFE701980290FFE7029849
:100710000390FFE703980490FFE704980590FFE734
:1007200005980690FFE706980790FFE7079808905E
:10073000FFE70898C0B20D9901F00301890000FAA3
:1007400001F10A9808430A900A980D9921F00301D3
:1007500043F60802C4F20102885043F60840C4F28E
:10076000010000680A900B990A9888430A900E9835
:100770008079C006002805D5FFE70B990A98084341
:100780000A90FFE70A9843F60841C4F201010860A5
:1007900043F60C40C4F2010000680A900B990A98D5
:1007A00088430A900E9880798006002805D5FFE7D7
:1007B0000B990A9808430A90FFE70A9843F60C4100
:1007C000C4F20101086043F60440C4F2010000686D
:1007D0000A900B990A9888430A900E9880798007AE
:1007E000002805D5FFE70B990A9808430A90FFE710
:1007F0000A9843F60441C4F20101086043F6004040
:10080000C4F2010000680A900B990A9888430A9084
:100810000E988079C00728B1FFE70B990A98084322
:100820000A90FFE70A9843F60041C4F2010108600C
:10083000FFE7FFE7FFE70D9801300D9013E610B0DA
:100840007047000082B00190ADF802108DF80120D1
:100850009DF8010028B1FFE7BDF802000199886109
:1008600005E0BDF80200000401998861FFE702B0CD
:100870007047000040F20C10C2F2000000687047A0
:1008800040F20400C2F20000027840F20C11C2F201
:1008900000010868104408607047000080B543F606
:1008A0000041C4F20201086840F400700860086862
:1008B00040F480600860086840F48070086003209D
:1008C00000F08AF80F2000F005F800F03BF8002057
:1008D00080BD000080B582B0009040F20000C2F2FE
:1008E0000000006840F20401C2F200010A784FF4EF
:1008F0007A71B1FBF2F1B0FBF1F000F0DBFD20B159
:10090000FFE701208DF8070018E000980F280DD8A8
:10091000FFE700994FF0FF30002200F043F8009805
:1009200040F20801C2F20001086003E001208DF8E6
:10093000070003E000208DF80700FFE79DF807009F
:1009400002B080BD82B0FFE70020019043F6440072
:10095000C4F20200016841F480410160006800F4C3
:10096000804001900198FFE7FFE70020009043F6E8
:100970004000C4F20200016841F08051016000684B
:1009800000F0805000900098FFE702B07047000030
:1009900080B582B08DF807009DF9070002F064F978
:1009A00002B080BD80B586B08DF817000491039227
:1009B0000020029002F070F902909DF9170001905A
:1009C00002980499039A01F03FFD0146019802F054
:1009D0006BF906B080BD000080B582B0019001982F
:1009E00002F084F902B080BD80B584B0002002908E
:1009F000FFE70020019043F64000C4F202000168C6
:100A000041F080510160006800F080500190019831
:100A1000FFE74021C4F20E2101200860FFF72AFF02
:100A20000290FFE747F20400C4F20000006800F4FF
:100A30008030B0F5803F0DD0FFE7FFF71BFF029934
:100A4000401AB0F57A7F04D9FFE703208DF80F0034
:100A500025E0E7E74421C4F20E2101200860FFF7FA
:100A600009FF0290FFE747F20400C4F200000068AB
:100A700000F40030B0F5003F0DD0FFE7FFF7FAFEBD
:100A80000299401AB0F57A7F04D9FFE703208DF868
:100A90000F0004E0E7E700208DF80F00FFE79DF866
:100AA0000F0004B080BD000080B584B002900191B9
:100AB000029820B9FFE701208DF80F0021E101988D
:100AC00043F60041C4F20201096801F00F018842B7
:100AD00012D9FFE7019943F60040C4F20200017009
:100AE000006800F00F000199884204D0FFE7012060
:100AF0008DF80F0005E1FFE70298007880070028D5
:100B00002AD5FFE7029800784007002809D5FFE7BB
:100B100043F60801C4F20201086840F4E05008609E
:100B2000FFE7029800780007002809D5FFE743F6A1
:100B30000801C4F20201086840F460400860FFE761
:100B400043F60801C4F20201086820F0F000029A9E
:100B5000926810430860FFE702980078C0070028F9
:100B60006ED0FFE702984068012811D1FFE743F6F5
:100B70000000C4F20200006800F400310020B0EB75
:100B8000514F04D1FFE701208DF80F00B9E02CE0B0
:100B900002984068022805D0FFE7029840680328C1
:100BA00011D1FFE743F60000C4F20200006800F034
:100BB00000710020B0EB516F04D1FFE701208DF8E8
:100BC0000F009EE010E043F60000C4F2020000684F
:100BD00000F002010020B0EB510F04D1FFE701202B
:100BE0008DF80F008DE0FFE7FFE743F60801C4F240
:100BF0000201086820F00300029A5268104308605E
:100C0000FFF738FE0090FFE743F60800C4F2020049
:100C1000006800F00C0002994968B0EB810F0ED01B
:100C2000FFE7FFF727FE0099401A41F28931884219
:100C300004D3FFE703208DF80F0062E0E4E7FFE74D
:100C4000019843F60041C4F20201096801F00F0166
:100C5000884212D2FFE7019943F60040C4F2020035
:100C60000170006800F00F000199884204D0FFE78E
:100C700001208DF80F0044E0FFE70298007840075C
:100C800000280CD5FFE743F60801C4F2020108680A
:100C900020F4E050029AD26810430860FFE70298FF
:100CA0000078000700280DD5FFE743F60801C4F2DD
:100CB0000201086820F46040029A126940EAC2000A
:100CC0000860FFE700F022F843F60801C4F20201D1
:100CD0000968C9B20A0942F6B851C0F60001895C38
:100CE000C84040F20001C2F20001086040F2080072
:100CF000C2F200000068FFF7EDFD00208DF80F0044
:100D0000FFE79DF80F0004B080BD000080B586B0FD
:100D10000020059004900390029043F60800C4F26E
:100D20000200006800F00C000146019140B1FFE7AD
:100D3000019804280AD0FFE7019808280CD04FE05A
:100D400042F20040C0F2F40002904FE041F6003061
:100D5000C0F2B700029049E043F60400C4F202007A
:100D6000016801F03F01059100684002002813D599
:100D7000FFE743F60400C4F202000068C0F38810E5
:100D800041F60031C0F2B701A0FB0101059A002332
:100D9000FFF77CFA049012E043F60400C4F202006C
:100DA0000068C0F3881042F20041C0F2F401A0FBD9
:100DB0000101059A0023FFF769FA0490FFE743F663
:100DC0000400C4F20200006800F44031022000EB8D
:100DD000D130039004980399B0FBF1F0029005E044
:100DE00042F20040C0F2F4000290FFE7029806B021
:100DF00080BD000080B586B00490049820B9FFE75C
:100E000001208DF8170050E304980078C0070028EF
:100E100000F0A580FFE743F60800C4F20200006876
:100E200000F00C00042813D0FFE743F60800C4F2DA
:100E30000200006800F00C0008281ED1FFE743F60E
:100E40000400C4F2020000684002002815D5FFE744
:100E500043F60000C4F20200006800F400310020F4
:100E6000B0EB514F08D0FFE70498406820B9FFE786
:100E700001208DF8170018E370E0FFE70498406840
:100E8000B0F5803F09D1FFE743F60001C4F202014B
:100E9000086840F48030086020E004984068B0F5AD
:100EA000A02F0DD1FFE743F60001C4F2020108684C
:100EB00040F480200860086840F4803008600CE04E
:100EC00043F60001C4F20201086820F48030086093
:100ED000086820F480200860FFE7FFE7FFE7049838
:100EE0004068E8B1FFE7FFF7C5FC0390FFE743F672
:100EF0000000C4F20200006800F400310020B0EBF2
:100F0000514F0CD1FFE7FFF7B5FC0399401A652854
:100F100004D3FFE703208DF81700C6E2E7E71CE0E3
:100F2000FFF7A8FC0390FFE743F60000C4F20200BD
:100F3000006800F400310020B0EB514F0CD0FFE707
:100F4000FFF798FC0399401A652804D3FFE70320B4
:100F50008DF81700A9E2E7E7FFE7FFE7FFE704984E
:100F600000788007002840F19680FFE743F60800EC
:100F7000C4F20200006810F00C0F13D0FFE743F634
:100F80000800C4F20200006800F00C0008282CD110
:100F9000FFE743F60400C4F20200006840020028A4
:100FA00023D4FFE743F60000C4F20200006800F01B
:100FB00002010020B0EB510F09D0FFE70498C06890
:100FC000012804D0FFE701208DF817006DE243F6F9
:100FD0000001C4F20201086820F0F800049A1269C6
:100FE00040EAC2000860FFE754E00498C06870B3AC
:100FF000FFE70021C4F2472101200860FFF73AFC17
:101000000390FFE743F60000C4F20200006800F01E
:1010100002010020B0EB510F0CD1FFE7FFF72AFCD3
:101020000399401A032804D3FFE703208DF8170023
:101030003BE2E7E743F60001C4F20201086820F052
:10104000F800049A126940EAC200086021E0002119
:10105000C4F2472100200860FFF70CFC0390FFE773
:1010600043F60000C4F20200006800F00201002014
:10107000B0EB510F0CD0FFE7FFF7FCFB0399401AD0
:10108000032804D3FFE703208DF817000DE2E7E7FC
:10109000FFE7FFE7FFE704980078000700284BD53B
:1010A000FFE70498406918B3FFE740F68061C4F297
:1010B000472101200860FFF7DDFB0390FFE743F6BF
:1010C0007400C4F20200006800F002010020B0EBDE
:1010D000510F0CD1FFE7FFF7CDFB0399401A03280E
:1010E00004D3FFE703208DF81700DEE1E7E722E0F5
:1010F00040F68061C4F2472100200860FFF7BAFB88
:101100000390FFE743F67400C4F20200006800F0A9
:1011100002010020B0EB510F0CD0FFE7FFF7AAFB54
:101120000399401A032804D3FFE703208DF8170022
:10113000BBE1E7E7FFE7FFE70498007840070028F6
:1011400040F1CE80FFE700208DF8070043F6400015
:10115000C4F202000068C000002815D4FFE7FFE7D2
:101160000020009043F64000C4F20200016841F004
:1011700080510160006800F0805000900098FFE707
:1011800001208DF80700FFE747F20000C4F20000DD
:101190000068C005002822D4FFE747F20001C4F22E
:1011A0000001086840F480700860FFF763FB03905B
:1011B000FFE747F20000C4F200000068C005002805
:1011C0000CD4FFE7FFF756FB0399401A032804D31A
:1011D000FFE703208DF8170067E1EAE7FFE7FFE785
:1011E00004988068012809D1FFE743F67001C4F232
:1011F0000201086840F0010008601FE00498806860
:1012000005280DD1FFE743F67001C4F2020108681A
:1012100040F004000860086840F0010008600CE03D
:1012200043F67001C4F20201086820F00100086072
:10123000086820F004000860FFE7FFE7FFE7049874
:101240008068F8B1FFE7FFF715FB0390FFE743F66F
:101250007000C4F20200006800F002010020B0EB50
:10126000510F0ED1FFE7FFF705FB0399401A41F23A
:101270008931884204D3FFE703208DF8170014E179
:10128000E5E71EE0FFF7F6FA0390FFE743F670008C
:10129000C4F20200006800F002010020B0EB510F20
:1012A0000ED0FFE7FFF7E6FA0399401A41F28931C1
:1012B000884204D3FFE703208DF81700F5E0E5E747
:1012C000FFE79DF80700012809D1FFE743F6400139
:1012D000C4F20201086820F080500860FFE7FFE7D1
:1012E00004988069002800F0DC80FFE743F60800DE
:1012F000C4F20200006800F00C00082800F08580AD
:10130000FFE70498806902285CD1FFE76021C4F2FE
:10131000472100200860FFF7ADFA0390FFE743F68E
:101320000000C4F20200006800F000710020B0EB81
:10133000516F0CD0FFE7FFF79DFA0399401A03287D
:1013400004D3FFE703208DF81700AEE0E7E7049928
:10135000C869D1F820C04B6A8A6A40EA0C0040EAAA
:101360008310D2034FF6FF739A43A2F580321043E5
:10137000C96A40EA016043F60401C4F20201086050
:101380006021C4F2472101200860FFF773FA03903F
:10139000FFE743F60000C4F20200006800F00071AD
:1013A0000020B0EB516F0CD1FFE7FFF763FA039910
:1013B000401A032804D3FFE703208DF8170074E0D8
:1013C000E7E721E06021C4F2472100200860FFF731
:1013D00051FA0390FFE743F60000C4F202000068F0
:1013E00000F000710020B0EB516F0CD0FFE7FFF769
:1013F00041FA0399401A032804D3FFE703208DF82C
:10140000170052E0E7E7FFE74AE004988069012807
:1014100004D1FFE701208DF8170046E043F60400F1
:10142000C4F202000068029004988069012831D05B
:10143000FFE7029800F480000499C969884229D125
:10144000FFE7029800F03F000499096A884221D121
:10145000FFE7029847F6C07108400499496AB0EB6B
:10146000811F17D1FFE7029800F440300499896A80
:10147000C9034FF6FF729143A1F58031884209D12B
:10148000FFE7029800F070600499C96AB0EB016F41
:1014900004D0FFE701208DF8170006E0FFE7FFE723
:1014A000FFE700208DF81700FFE79DF8170006B052
:1014B00080BD000080B582B00190019800F0FEFF71
:1014C00002B080BD81B0009001B0704781B0009043
:1014D00001B0704784B00290019100200090FFE7B6
:1014E000029890F83C00012804D1FFE702208DF813
:1014F0000F0044E00299012081F83C00FFE7FFE77C
:10150000009820F0FF000199C968084300900098F6
:1015100020F440700199896808430090009820F4F5
:1015200080600199496808430090009820F40060A9
:101530000199096808430090009820F480500199AF
:10154000096908430090009820F400500199496906
:1015500008430090009820F480400199C96908432D
:1015600000900098029909684864FFE702990020FA
:1015700081F83C00FFE700208DF80F00FFE79DF8A1
:101580000F0004B07047000085B003900291FFE7A0
:10159000039890F83C00012804D1FFE702208DF861
:1015A00013007EE00399012081F83C00FFE7FFE78C
:1015B0000399022081F83D0003980068406801907B
:1015C0000398006880680090019820F070000190F6
:1015D00002980168019808430190019803990968ED
:1015E0004860039800680021C4F2010188423CD0A1
:1015F000FFE703980068B0F1804F36D0FFE703980B
:10160000006840F20041C4F2000188422DD0FFE79B
:101610000398006840F60001C4F20001884224D01B
:10162000FFE70398006840F60041C4F200018842D9
:101630001BD0FFE70398006840F20041C4F20101AB
:10164000884212D0FFE70398006844F20001C4F218
:101650000101884209D0FFE70398006841F60001C4
:10166000C4F2000188420ED1FFE7009820F080000C
:1016700000900298416800980843009000980399F0
:1016800009688860FFE70399012081F83D00FFE7C2
:101690000399002081F83C00FFE700208DF813003B
:1016A000FFE79DF8130005B07047000080B582B0D9
:1016B0000090009820B9FFE701208DF807003FE077
:1016C000009890F83D0040B9FFE70099002081F8AC
:1016D0003C00009800F038F8FFE70099022081F8FC
:1016E0003D00009951F8040B00F090FF0099012093
:1016F00081F84600FFE70099012081F83E0000993B
:1017000081F83F00009981F84000009981F841007C
:10171000FFE7FFE70099012081F84200009981F876
:101720004300009981F84400009981F84500FFE7E3
:101730000099012081F83D0000208DF80700FFE7A7
:101740009DF8070002B080BD80B584B00390039877
:1017500000680021C4F2010188421BD1FFE7FFE7C6
:101760000020029043F64400C4F20200016841F0F8
:1017700001010160006800F0010002900298FFE79B
:101780001920009000221146FFF70CF90098FFF78E
:10179000FFF81BE00398006841F60001C4F2000165
:1017A000884212D1FFE7FFE70020019043F6400096
:1017B000C4F20200016841F040010160006800F0DD
:1017C000400001900198FFE7FFE7FFE704B080BD0C
:1017D00083B00190019890F83D00012804D0FFE704
:1017E00001208DF80B0064E00199022081F83D0092
:1017F000019800680021C4F2010188423CD0FFE753
:1018000001980068B0F1804F36D0FFE7019800687A
:1018100040F20041C4F2000188422DD0FFE7019858
:10182000006840F60001C4F20001884224D0FFE7BE
:101830000198006840F60041C4F2000188421BD0C4
:10184000FFE70198006840F20041C4F201018842BC
:1018500012D0FFE70198006844F20001C4F20101D0
:10186000884209D0FFE70198006841F60001C4F200
:101870000001884212D1FFE701980068806800F0FB
:10188000070000900098062807D0FFE7019801683C
:10189000086840F001000860FFE706E00198016871
:1018A000086840F001000860FFE700208DF80B0099
:1018B000FFE79DF80B0003B07047000080B586B0CD
:1018C0000490039100208DF80B00FFE7049890F836
:1018D0003C00012804D1FFE702208DF81700ABE09F
:1018E0000499012081F83C00FFE7FFE704990220FA
:1018F00081F83D000498006880680190019820F00C
:1019000077000190019820F47F400190019804999C
:1019100009688860039800680090002872D0FFE78B
:10192000009810286ED0FFE7009820286AD0FFE7C3
:101930000098302866D0FFE70098402855D0FFE790
:101940000098502837D0FFE70098602840D0FFE784
:10195000009870280BD0FFE70098B0F5805F05D0A5
:10196000FFE70098B0F5005F16D052E055E004980C
:101970000068039B5A689968DB6800F035FF04989B
:10198000006880680190019840F07700019001980C
:1019900004990968886040E004980068039B5A68CD
:1019A0009968DB6800F020FF04980168886840F4BB
:1019B0008040886031E004980068039A5168D268DA
:1019C00001F0FEF804980068502100F027FF24E0A1
:1019D00004980068039A5168D26801F019F90498D4
:1019E0000068602100F01AFF17E004980068039A6D
:1019F0005168D26801F0E4F804980068402100F0D2
:101A00000DFF0AE0049800680399096800F006FFDA
:101A100003E001208DF80B00FFE70499012081F815
:101A20003D00FFE70499002081F83C00FFE79DF8A6
:101A30000B008DF81700FFE79DF8170006B080BD7A
:101A400081B0009001B0704780B584B003900398D6
:101A50000068C068029003980068006901909DF8D2
:101A600004008007002824D5FFE79DF808008007C0
:101A700000281DD5FFE7039801686FF00200086198
:101A8000039901200877039800688069800720B1D6
:101A9000FFE70398FFF7D4FF06E0039800F044F94E
:101AA000039800F039FAFFE7039900200877FFE771
:101AB000FFE79DF804004007002825D5FFE79DF8C3
:101AC0000800400700281ED5FFE7039801686FF063
:101AD0000400086103990220087703980068806970
:101AE00010F4407F04D0FFE70398FFF7A9FF06E05A
:101AF000039800F019F9039800F00EFAFFE7039934
:101B000000200877FFE7FFE79DF8040000070028A2
:101B100024D5FFE79DF80800000700281DD5FFE742
:101B2000039801686FF008000861039904200877A2
:101B300003980068C069800720B1FFE70398FFF7AA
:101B40007FFF06E0039800F0EFF8039800F0E4F957
:101B5000FFE7039900200877FFE7FFE79DF80400FF
:101B6000C006002825D5FFE79DF80800C00600281C
:101B70001ED5FFE7039801686FF010000861039914
:101B80000820087703980068C06910F4407F04D0EB
:101B9000FFE70398FFF754FF06E0039800F0C4F84E
:101BA000039800F0B9F9FFE7039900200877FFE7F1
:101BB000FFE79DF80400C00778B1FFE79DF8080033
:101BC000C00748B1FFE7039801686FF001000861A2
:101BD000039800F08BFAFFE7FFE79DF8040000068A
:101BE000002810D5FFE79DF808000006002809D559
:101BF000FFE7039801686FF0800008610398FFF722
:101C000061FCFFE7FFE79DF804004006002810D5BF
:101C1000FFE79DF808004006002809D5FFE7039874
:101C200001686FF040000861039800F091FAFFE747
:101C3000FFE79DF804008006002810D5FFE79DF817
:101C400008008006002809D5FFE7039801686FF0B7
:101C5000200008610398FFF739FCFFE7FFE704B0B5
:101C600080BD000080B588B00790002006900590E8
:101C7000049003900290079800680021C4F20101CB
:101C8000884223D1FFE7FFE70020019043F63000B0
:101C9000C4F20200016841F010010160006800F028
:101CA000100001900198FFE74FF4006002900220BD
:101CB00003900020049005900120069041F200005E
:101CC000C4F2020002A9FEF7C5FB2BE007980068EA
:101CD00041F60001C4F20001884222D1FFE7FFE78C
:101CE0000020009043F63000C4F20200016841F089
:101CF00080010160006800F0800000900098FFE71C
:101D000040200290022003900020049005900920BA
:101D1000069041F60040C4F2020002A9FEF79AFBC9
:101D2000FFE7FFE708B080BD81B0009001B07047C9
:101D300080B586B004900391029200208DF80700D0
:101D4000FFE7049890F83C00012804D1FFE7022047
:101D50008DF8170089E00499012081F83C00FFE725
:101D6000FFE7029800900C2800F270800099DFE8ED
:101D700001F0076D6D6D206D6D6D3A6D6D6D5300E9
:101D800004980068039900F05FFD04980168886971
:101D900040F00800886104980168886920F0040018
:101DA0008861039802690498016888691043886112
:101DB00050E004980068039900F0BCFD04980168A5
:101DC000886940F40060886104980168886920F49B
:101DD000806088610398026904980168886940EA14
:101DE0000220886136E004980068039900F01CFE28
:101DF00004980168C86940F00800C8610498016847
:101E0000C86920F00400C861039802690498016859
:101E1000C8691043C8611DE004980068039900F088
:101E20007DFE04980168C86940F40060C8610498A8
:101E30000168C86920F48060C86103980269049849
:101E40000168C86940EA0220C86103E001208DF8FA
:101E50000700FFE7FFE70499002081F83C00FFE757
:101E60009DF807008DF81700FFE79DF8170006B0F2
:101E700080BD000080B582B00090009820B9FFE7D7
:101E800001208DF807003FE0009890F83D0040B930
:101E9000FFE70099002081F83C00009800F038F836
:101EA000FFE70099022081F83D00009951F8040BEA
:101EB00000F0ACFB0099012081F84600FFE7009993
:101EC000012081F83E00009981F83F00009981F8D7
:101ED0004000009981F84100FFE7FFE700990120E9
:101EE00081F84200009981F84300009981F844008C
:101EF000009981F84500FFE70099012081F83D0035
:101F000000208DF80700FFE79DF8070002B080BDB4
:101F100081B0009001B0704781B0009001B070476F
:101F200080B58CB00A900991099828B9FFE70A9802
:101F300090F83E0007901CE00998042805D1FFE7BF
:101F40000A9890F83F00069010E00998082805D1FB
:101F5000FFE70A9890F84000059004E00A9890F88E
:101F600041000590FFE705980690FFE70698079067
:101F7000FFE70798012804D0FFE701208DF82F0024
:101F8000AFE0099828B9FFE70A99022081F83E00DE
:101F90001EE00998042806D1FFE70A99022081F87B
:101FA0003F00049012E00998082806D1FFE70A993B
:101FB000022081F84000039005E00A99022081F890
:101FC00041000390FFE703980490FFE70498FFE7C0
:101FD0000A98006809990122019200F0E9FB019832
:101FE0000A9909680022C4F20102914202900CD0C1
:101FF000FFE70A9800684FF60041CBF6FE710844EF
:10200000B0FA80F040090290FFE70298C00738B1AB
:10201000FFE70A980168486C40F400404864FFE715
:102020000A9800680021C4F2010188423CD0FFE711
:102030000A980068B0F1804F36D0FFE70A98006830
:1020400040F20041C4F2000188422DD0FFE70A9817
:10205000006840F60001C4F20001884224D0FFE786
:102060000A98006840F60041C4F2000188421BD083
:10207000FFE70A98006840F20041C4F2010188427B
:1020800012D0FFE70A98006844F20001C4F201018F
:10209000884209D0FFE70A98006841F60001C4F2BF
:1020A0000001884212D1FFE70A980068806800F0BA
:1020B000070008900898062807D0FFE70A980168EB
:1020C000086840F001000860FFE706E00A98016830
:1020D000086840F001000860FFE700208DF82F003D
:1020E000FFE79DF82F000CB080BD000081B000908C
:1020F000009840F27401C2F20001884226D1FFE745
:1021000040F27000C2F2000001880131018040F20B
:102110000412C2F200021188013111800088B0F56A
:102120007A7F07DDFFE740F27001C2F20001002074
:102130000880FFE740F27000C2F20000008840F221
:102140007401C2F2000109688863FFE701B07047BB
:1021500081B0009001B07047FFE7FEE780B58EB018
:1021600000200D900C900B900A900990FFE7002042
:10217000089043F63000C4F20200016841F001010A
:102180000160006800F0010008900898FFE7FFE791
:102190000020079043F63000C4F20200016841F0CD
:1021A00080010160006800F0800007900798FFE759
:1021B000FFE70020069043F63000C4F202000168F9
:1021C00041F002010160006800F0020006900698EC
:1021D000FFE7FFE70020059043F63000C4F202005D
:1021E000016841F010010160006800F010000590E6
:1021F0000598FFE7FFE70020049043F63000C4F2A3
:102200000200016841F020010160006800F0200038
:1022100004900498FFE741F20040C4F202000290EB
:102220004FF48041009100220192FEF70BFB0198D0
:10223000042109910A9002200B9040F20040C4F260
:10224000020009A90391FEF705F9009B019A029883
:102250000399099301230A930B920C92FEF7FAF863
:102260000EB080BD80B58CB0002100910B910A9119
:1022700009910891079106910591049103910291AA
:10228000019140F2BC00C2F2000041F60002C4F22B
:102290000002026059224260816040F2F312C26083
:1022A00001618161FFF702FA18B1FFE7FEF7CEF88E
:1022B000FFE74FF48050089040F2BC00C2F20000EB
:1022C00008A9FFF7FBFA18B1FFE7FEF7BFF8FFE731
:1022D00040F2BC00C2F20000FFF7CCFD18B1FFE7EE
:1022E000FEF7B4F8FFE760200190FA200290002288
:1022F0000392059240F2BC00C2F2000001A9FFF770
:1023000017FD18B1FFE7FEF7A1F8FFE740F2BC00A8
:10231000C2F20000FFF7A6FC0CB080BD80B598B0FB
:102320000021019117911691159114911391129119
:10233000119110910F910E910D910C910B910A91A9
:10234000099108910791069105910491039140F23A
:102350007400C2F2000002900022C4F20102026086
:10236000B3224260816040F2E732C26001614161A4
:102370008161FFF79BF918B1FFE7FEF767F8FFE708
:102380004FF48050149040F27400C2F2000014A97F
:10239000FFF794FA18B1FFE7FEF758F8FFE740F2AD
:1023A0007400C2F20000FFF765FD18B1FFE7FEF709
:1023B0004DF8FFE700201290139040F27400C2F233
:1023C000000012A9FFF7E0F818B1FFE7FEF73EF8AA
:1023D000FFE760200B9041F288300C9000200D90B8
:1023E0000E900F901090119040F27400C2F2000015
:1023F0000BA90422FFF79CFC18B1FFE7FEF726F8B3
:10240000FFE70020039004900590069007904FF49A
:10241000005108910A9040F27400C2F2000003A932
:10242000FFF758F818B1FFE7FEF710F8FFE740F2A2
:102430007400C2F20000FFF715FC18B080BD000068
:10244000FFE7FEE7FFE7FEE788B0079006910592F9
:10245000079800F0070004900498C0F107000528D1
:1024600003D3FFE70420019004E00498C0F10700C3
:102470000190FFE70198039004980430062803D8E0
:10248000FFE70020009003E0049803380090FFE786
:102490000098029006980399012202FA01F101398D
:1024A0000840029B984005999A40013A1140084320
:1024B00008B07047704700007047000080B582B0D8
:1024C000009000980138B0F1807F03D3FFE701202E
:1024D000019019E0009801384EF21401CEF200018B
:1024E00008604FF0FF300F2100F0DEFB4EF21801C4
:1024F000CEF20001002008604EF21002CEF200027F
:10250000072111600190FFE7019802B080BD000033
:1025100080B5FEF7B5F980BD80B594B008A830212C
:10252000FDF72CFF00200790069005900490039083
:10253000FFE70020029043F64000C4F20200016869
:1025400041F080510160006800F0805002900298D4
:10255000FFE7FFE70020019047F20000C4F200000F
:10256000016841F440410160006800F4404001907E
:102570000198FFE7092008904FF48030099001206E
:102580000D9002200E904FF480010F9106211091C2
:10259000B421119112900420139008A8FEF72AFC90
:1025A00018B1FFE7FDF752FFFFE7FEF71DFA18B17C
:1025B000FFE7FDF74BFFFFE70F2003900220049099
:1025C000002005904FF4A05006904FF480500790E3
:1025D00003A80521FEF768FA18B1FFE7FDF736FFFB
:1025E000FFE714B080BD00004EF68851CEF2000126
:1025F000086840F4700008607047000080B540F241
:102600007400C2F20000FFF71FFA80BD83B0029091
:10261000019102980068009002980021C4F2010123
:10262000884225D0FFE70298B0F1804F20D0FFE725
:10263000029840F20041C4F20001884218D0FFE73E
:10264000029840F60001C4F20001884210D0FFE772
:10265000029840F60041C4F20001884208D0FFE72A
:10266000029840F20041C4F2010188420AD1FFE71A
:10267000009820F07000009001984168009808438D
:102680000090FFE702980021C4F20101884255D072
:10269000FFE70298B0F1804F50D0FFE7029840F278
:1026A0000041C4F20001884248D0FFE7029840F69A
:1026B0000001C4F20001884240D0FFE7029840F6D2
:1026C0000041C4F20001884238D0FFE7029840F28E
:1026D0000041C4F20101884230D0FFE7029844F281
:1026E0000001C4F20101884228D0FFE7029844F2B9
:1026F0000041C4F20101884220D0FFE7029844F66D
:102700000001C4F20101884218D0FFE7029841F6A7
:102710000001C4F20001884210D0FFE7029841F6A0
:102720000041C4F20001884208D0FFE7029842F25B
:102730000001C4F2000188420AD1FFE7009820F4AA
:10274000407000900198C168009808430090FFE72E
:10275000009820F080000199496908430090019891
:1027600080680299C862019800680299886202989C
:102770000021C4F20101884208D0FFE7029840F22C
:102780000041C4F20101884205D1FFE701980069C8
:1027900002990863FFE70299086840F004000860A6
:1027A00002990120486100980299086003B07047BF
:1027B00084B0039002910192029800F01F01012061
:1027C00088400090009A0399086A90430862019833
:1027D000029901F01F0100FA01F20399086A1043FF
:1027E000086204B07047000085B004900391029223
:1027F0000193049880680090009820F47F40009036
:1028000003980299019A41EA022101430098084382
:10281000009000980499886005B0704783B00290DA
:102820000191029880680090009820F0700000905C
:1028300001980099084340F0070000900098029921
:10284000886003B07047000085B00490039104983D
:10285000006A01900499086A20F001000862049857
:1028600040680090049880690290029820F07000FF
:102870000290029820F003000290039801680298E9
:1028800008430290019820F00200019003988168AB
:1028900001980843019004980021C4F20101884284
:1028A00008D0FFE7049840F20041C4F201018842D9
:1028B0000ED1FFE7019820F0080001900398C1684D
:1028C000019808430190019820F004000190FFE76F
:1028D00004980021C4F20101884208D0FFE704985F
:1028E00040F20041C4F20101884213D1FFE7009891
:1028F00020F480700090009820F4007000900398FD
:102900004169009808430090039881690098084342
:102910000090FFE700980499486002980499886144
:10292000039840680499486301980499086205B0C7
:102930007047000085B0049003910498006A0190EC
:102940000499086A20F0100008620498406800901A
:10295000049880690290029820F4E0400290029866
:1029600020F44070029003980168029840EA012028
:102970000290019820F0200001900398816801984E
:1029800040EA0110019004980021C4F2010188423C
:1029900008D0FFE7049840F20041C4F201018842E8
:1029A0000FD1FFE7019820F0800001900398C168E3
:1029B000019840EA01100190019820F04000019038
:1029C000FFE704980021C4F20101884208D0FFE724
:1029D000049840F20041C4F20101884215D1FFE79A
:1029E000009820F480600090009820F4006000902F
:1029F00003984169009840EA81000090039881693A
:102A0000009840EA81000090FFE700980499486030
:102A10000298049988610398406804998863019832
:102A20000499086205B0704785B00490039104983A
:102A3000006A01900499086A20F480700862049882
:102A4000406800900498C0690290029820F07000DD
:102A50000290029820F00300029003980168029807
:102A600008430290019820F4007001900398816857
:102A7000019840EA0120019004980021C4F201016C
:102A8000884208D0FFE7049840F20041C4F20101F7
:102A900088420FD1FFE7019820F40060019003986D
:102AA000C168019840EA01200190019820F48060FB
:102AB0000190FFE704980021C4F20101884208D088
:102AC000FFE7049840F20041C4F20101884215D1A9
:102AD000FFE7009820F480500090009820F4005008
:102AE000009003984169009840EA01100090039813
:102AF0008169009840EA01100090FFE7009804996E
:102B0000486002980499C861039840680499C863B2
:102B100001980499086205B07047000085B00490E0
:102B200003910498006A01900499086A20F4805087
:102B300008620498406800900498C0690290029866
:102B400020F4E0400290029820F440700290039834
:102B50000168029840EA01200290019820F4005098
:102B6000019003988168019840EA0130019004982F
:102B70000021C4F20101884208D0FFE7049840F226
:102B80000041C4F2010188420BD1FFE7009820F414
:102B90008040009003984169009840EA81100090BD
:102BA000FFE700980499486002980499C861039867
:102BB00040680499086401980499086205B0704758
:102BC00085B00490039102920498006A00900499E1
:102BD000086A20F001000862049880690190019859
:102BE00020F0F00001900299019840EA0110019054
:102BF000009820F00A000090039900980843009084
:102C000001980499886100980499086205B070479A
:102C100085B00490039102920498006A0090049990
:102C2000086A20F0100008620498806901900198F9
:102C300020F4704001900299019840EA013001901F
:102C4000009820F0A00000900399009840EA01103D
:102C5000009001980499886100980499086205B071
:102C600070470000FFE7FEE781B08DF803009DF993
:102C7000030000280ED4FFE79DF9031001F01F02A6
:102C8000012090404A094EF20011CEF2000141F8B5
:102C90002200FFE701B070474EF60C50CEF2000064
:102CA0000068C0F30220704782B08DF807000091E1
:102CB0009DF9070000280AD4FFE7009800019DF95C
:102CC00007104EF20042CEF2000288540BE000984A
:102CD00000019DF8071001F00F014EF61452CEF2DC
:102CE00000028854FFE702B07047000083B00290F2
:102CF000029800F0070000904EF60C51CEF2000151
:102D00000868019001984FF6FF0210400190019869
:102D1000009A40EA02200022C0F2FA5210430190C9
:102D20000198086003B0704780B584B0002003901C
:102D3000FDF7B4FDFFF7F0FBFFF710FAFFF7EEFA2F
:102D4000FFF790FA41F20000C4F202004FF4006174
:102D500001220192FDF776FD019A41F20040C4F292
:102D600002004FF48041FDF76DFD40F27400C2F2A5
:102D700000000290FEF72CFD02980421FFF7D0F826
:102D800002980168C86840F00100C860FFE7FDF7DD
:102D900071FD40F20811C2F200010860F7E7F1EEA0
:102DA000100A4FF6FF71C0F2C03120EA010040F076
:102DB0004070E1EE100A70470000000000000000C3
:102DC0000102030406070809E82D0008000000209E
:102DD00010000000E8010008F82D00081000002095
:102DE00000070000040200080024F40001000000B5
:082DF0001000000000000000CB
:04000005080001AD41
:00000001FF
